:020000040800F2
:100000004012002005030008010300080103000856
:1000100001030008010300080103000800000000BC
:1000200000000000000000000000000001030008C4
:10003000010300080000000001030008010300089C
:100040000103000801030008010300080103000880
:100050000103000801030008010300080103000870
:100060000103000801030008010300080103000860
:100070000103000801030008010300080103000850
:100080000103000801030008010300080103000840
:100090000103000801030008010300080103000830
:1000A0000103000801030008010300080103000820
:1000B000010300080103000871090008010300089A
:1000C0000103000801030008010300080103000800
:1000D00001030008010300080103000801030008F0
:1000E00001030008010300080103000800000000EC
:1000F0000000000000000000000000000000000000
:1001000000000000000000005FF808F1274A0388A3
:1001100090429BB212D002F5006290420ED0B0F134
:10012000804F0BD0A2F59832904207D002F5806242
:10013000904203D002F58062904203D14A8823F0B6
:10014000700313431A4A904227D002F5806290420E
:1001500023D070B423F44073CE888D880C889BB272
:1001600002F58C32334390420380858504850ED09E
:10017000104B98420BD003F54063984207D003F52B
:100180008063984203D003F58063984201D10B7AD3
:100190000386012370BC8382704703808B8883852C
:1001A0000B88038501238382704700BF002C014028
:1001B0000010004000340140038829B923F00103F6
:1001C0001B041B0C038070479BB243F001030380A8
:1001D000704700BF83899BB21AB923EA010181816C
:1001E0007047194381817047038A194214BF012067
:1001F00000207047C94389B20182704730B400249F
:100200004FF41F053A4B3B49186882B040F001009B
:10021000186058681A4601405960196821F08471C5
:1002200021F480311960196821F48021196059681E
:1002300021F4FE0159609D6000940194196841F415
:100240008031196003E0009BB3F5A06F09D01368FB
:1002500003F400330193009B01330093019B002BB7
:10026000F1D0234B1B6813F4003318BF0123019313
:10027000019B012B06D04FF000621F4B9A6002B029
:1002800030BC70471D491A4B08681A4640F01000F0
:100290000860086820F003000860086840F0020069
:1002A00008605968596059685960596841F480611B
:1002B0005960596821F47C115960596841F4E8117A
:1002C0005960196841F08071196013689B01FCD571
:1002D0005368074923F003035360536843F0020354
:1002E00053604B6803F00C03082BFAD1C3E700BF3F
:1002F000001002400000FFF800ED00E00020024086
:10030000FEE700BF08B50D480D4B984207D2C24327
:100310001A4422F0030204320A4901F0D3FB0A48CE
:100320000A494FF000028842B8BF40F8042BFADBBC
:10033000FFF764FFBDE8084000F0CAB900000020E4
:10034000BC090020787C0008BC090020400E002079
:1003500030B4CD78EB0648BF8B7805F00F0448BF6A
:100360001C430B8813F0FF0F32D0482D026800F0B9
:100370008180282D00F0B680D90744BF22F00F02FB
:100380002243990744BF22F0F00242EA04125907BF
:1003900044BF22F4706242EA0422190744BF22F4E7
:1003A000704242EA0432D90644BF22F4702242EA83
:1003B0000442990644BF22F4700242EA04525906EC
:1003C00044BF22F0706242EA0462190671D40260EE
:1003D000FF2B30D9282D42682FD0482D6CD0D9055D
:1003E00044BF22F00F0222439D0544BF22F0F002D9
:1003F00042EA0412590544BF22F4706242EA042220
:100400001D0544BF22F4704242EA0432D90444BFBD
:1004100022F4702242EA04429D0444BF22F4700296
:1004200042EA0452590444BF22F0706242EA046274
:100430001D043BD4426030BC7047D90500F1D68022
:100440009D0500F1CB80590500F1C0801D0500F12C
:10045000B580D90400F1AA809D0400F19F80590461
:1004600000F194801B04E5D54FF4004364F31F7240
:100470004361DFE7D90700F1E380990700F1D980F4
:10048000590700F1CF80190700F1C580D90600F1A6
:10049000BB80990600F1B180590600F1D78019069A
:1004A00095D5802164F31F72016190E764F31F7298
:1004B000C0E764F31F728AE7D90548D49D053ED48E
:1004C000590534D41D052AD4D9044FD49D0445D4EC
:1004D000590453D41D04ADD54FF4004364F31F7287
:1004E0000361A7E7D90700F1E280990700F1D880FE
:1004F000590700F1CE80190700F1C480D90600F138
:10050000BA80990600F1B080590600F1A68019065C
:100510007FF55DAF802164F31F72416157E74FF4AF
:10052000006122F4704242EA04320161CCE74FF4E8
:10053000806122F4706242EA04220161C2E74FF452
:10054000007122F0F00242EA04120161B8E74FF4B0
:10055000807122F00F0222430161AFE74FF4005196
:1005600022F4700242EA04520161B1E74FF4805173
:1005700022F4702242EA04420161A7E74FF480416D
:1005800022F0706242EA04620161A3E74FF4804105
:1005900022F0706242EA0462416163E74FF4005165
:1005A00022F4700242EA0452416158E74FF480514C
:1005B00022F4702242EA044241614DE74FF40061A7
:1005C00022F4704242EA0432416142E74FF4806112
:1005D00022F4706242EA0422416137E74FF400716D
:1005E00022F0F00242EA041241612CE74FF48071DC
:1005F00022F00F022243416122E7202122F47002FF
:1006000042EA0452016147E7102122F4702242EAD3
:10061000044201613DE7082122F4704242EA0432BB
:10062000016133E7042122F4706242EA042201618D
:1006300029E7022122F0F00242EA041201611FE7D9
:10064000012122F00F022243016116E7402122F02E
:10065000706242EA0462016121E7402122F0706287
:1006600042EA0462416152E7202122F4700242EA28
:100670000452416148E7102122F4702242EA044208
:1006800041613EE7082122F4704242EA04324161AE
:1006900034E7042122F4706242EA042241612AE72D
:1006A000022122F0F00242EA0412416120E7012116
:1006B00022F00F022243416117E700BF836819420D
:1006C00014BF0120002070470161704741617047ED
:1006D0002DE9804885B001F089F83F4B01AD0FCB83
:1006E00007C500212B7001AA084600F0ADFE782155
:1006F0003A4800F05FFD00F0FBF9394A01AB07CA48
:1007000003C301211A70002001AA00F09DFE782188
:10071000324800F04FFD0121102000F0C5F84FF4E1
:1007200000551022032369462E48ADF800508DF87D
:1007300003208DF80230FFF70BFE2B4CDFF8C0B022
:10074000DFF8C0A0DFF8C090284DDFF8C080284F48
:100750002668002EFCD100F021FEDBF8002039468F
:1007600001A801F0D7FA01AA3146304600F06CFE2C
:10077000DAF800201F4901A801F0CCFA01AA0121F2
:10078000304600F061FED9F800201B4901A801F0B5
:10079000C1FA01AA0221304600F056FE2A687AB951
:1007A00078210E4800F006FDD8F800304FF40051D3
:1007B0000C4813B1FFF78AFFCAE7FFF785FFC7E7C9
:1007C0002A680E4901A801F0A5FA01AA30460321C2
:1007D00000F03AFEE4E700BFF86100080054004072
:1007E0000862000800100140080E0020040E0020DE
:1007F00014620008206200082C62000838620008B9
:10080000F4090020F8090020FC090020000E002057
:10081000214A10B4536803F00C03042B06D0082BB4
:1008200025D01BB11D4A1346026001E01B4B03603B
:1008300019491B4A4C68C4F30314145DE340436038
:100840004C68C4F30224145D23FA04F484604C68F9
:10085000C4F3C224145DE340C360496810BCC1F313
:1008600081310A44127CB3FBF2F303617047536891
:100870005168C3F38343C90303F1020307D55268E8
:10088000920304D4054A02FB03F30360D0E7054A50
:1008900002FB03F30360CBE70010024000127A0072
:1008A0000000002000093D00044A936919B923EAB9
:1008B000000090617047184390617047001002403B
:1008C000044AD36919B923EA0000D061704718437C
:1008D000D061704700100240044A136919B923EA35
:1008E000000010617047184310617047001002400B
:1008F000044A05491368002B08BF0B4618441060D2
:1009000018467047BC090020400E0020C3785BB930
:100910000121037814485A0903F01F03203201FA19
:1009200003F340F822307047104B0F21DA6870B49F
:10093000D243012485784378C2F30222C2F104062F
:1009400021FA02F22A40B34001781343064A1B0100
:1009500001F01F055018DBB2AC4080F800334909A4
:1009600042F8214070BC704700E100E000ED00E07B
:10097000F8B501215348FFF737FC002862D1012167
:100980005148FFF79BFE514E04463368032B07D8AE
:10099000DFE803F04F36230700234D4A336013602E
:1009A000F8BD4C4B1A681F2A51DC4B4A11680029CC
:1009B0006DD0002870D0012878D0002118680F2849
:1009C000D4BF46484648046841EA4401016000211A
:1009D00011601A6801321A60F8BD3E4B1A680B2A82
:1009E000F7DD0321002231603D4F3C4D3D4C3A483C
:1009F0003D493A602A60226002601A600A60F8BDD0
:100A00000028CDD1304D2F4F03E09C4238D0B88420
:100A1000013401212846FFF751FE42F210730028ED
:100A2000F3D09C422CD0022100222A4B31601A6064
:100A3000F8BD284BC8B11A6801321A601A68052A35
:100A400015DCF8BD01211F48FFF7D4FB97E71A68B2
:100A50003B2AA1DC1A68332ABBDD224A116849000F
:100A60001160116808431060B3E71860F8BD0120F9
:100A700000211E4A30601960136843401360F8BDBE
:100A80000023134A3360136801331360F8BD01215A
:100A9000154C206011609CE71349096801298DD02D
:100AA0000B4A1368013313603060F8BD0E490968C2
:100AB000002983D00021064A136801331360316096
:100AC000F8BD00BF00080040000C0140080E0020E7
:100AD000040E00200C0E0020100E0020F40900204F
:100AE000F8090020FC090020140E0020000E002050
:100AF000F0B5012187B00820FFF7D6FE0125282296
:100B0000032302A920488DF80B208DF80A30ADF898
:100B10000850FFF71DFC29460420FFF7D1FE4FF4D3
:100B2000DE734822194E03A9304604930392FFF75F
:100B3000EDFA2A4629463046FFF74CFB00241E23D7
:100B400001A88DF804308DF807508DF80540FFF7A7
:100B5000DDFE29463046FFF72FFB0D4A0D4B156091
:100B6000DFF84CE01C600C4F0C4E0D480D490E4A4E
:100B70000E4BCEF800403C60346004600C601460A2
:100B80001C6007B0F0BD00BF000C01400008004031
:100B9000000E0020080E0020100E0020040E002081
:100BA000F8090020F4090020FC0900200C0E0020A8
:100BB000140E0020F8B505460F46194C194E01E0F9
:100BC000013C27D03146284600F06EFF0028F7D0C0
:100BD0000021284600F05AFF134E01E0013C19D0D5
:100BE0003146284600F060FF0028F7D039462846F5
:100BF00000F04CFF0C4E01E0013C0BD03146284682
:100C000000F052FF0028F7D02846012100F030FF05
:100C10000020F8BD2846012100F02AFF0220F8BD7F
:100C2000A0860100820007008400070070B5012142
:100C30000446C24D00F00EFFC14E01E0013D0ED052
:100C40003146204600F030FF0028F7D078212046BA
:100C5000002200F01DFFAE212046FFF7ABFF01216F
:100C6000204600F0F7FEB54DB54E01E0013D0ED037
:100C70003146204600F018FF0028F7D078212046A2
:100C8000002200F005FF00212046FFF793FF01211D
:100C9000204600F0DFFEA94DA94E01E0013D0ED037
:100CA0003146204600F000FF0028F7D0782120468A
:100CB000002200F0EDFE10212046FFF77BFF01210E
:100CC000204600F0C7FE9D4D9D4E01E0013D0ED037
:100CD0003146204600F0E8FE0028F7D07821204673
:100CE000002200F0D5FE40212046FFF763FF0121DE
:100CF000204600F0AFFE914D914E01E0013D0ED037
:100D00003146204600F0D0FE0028F7D0782120465A
:100D1000002200F0BDFE81212046FFF74BFF01219C
:100D2000204600F097FE854D854E01E0013D0ED036
:100D30003146204600F0B8FE0028F7D07821204642
:100D4000002200F0A5FECF212046FFF733FF01214E
:100D5000204600F07FFE794D794E01E0013D0ED036
:100D60003146204600F0A0FE0028F7D0782120462A
:100D7000002200F08DFEA1212046FFF71BFF01217C
:100D8000204600F067FE6D4D6D4E01E0013D0ED036
:100D90003146204600F088FE0028F7D07821204612
:100DA000002200F075FEC8212046FFF703FF012155
:100DB000204600F04FFE614D614E01E0013D0ED036
:100DC0003146204600F070FE0028F7D078212046FA
:100DD000002200F05DFEA6212046FFF7EBFE012178
:100DE000204600F037FE554D554E01E0013D0ED036
:100DF0003146204600F058FE0028F7D078212046E2
:100E0000002200F045FEA4212046FFF7D3FE012179
:100E1000204600F01FFE494D494E01E0013D0ED035
:100E20003146204600F040FE0028F7D078212046C9
:100E3000002200F02DFEA8212046FFF7BBFE012175
:100E4000204600F007FE3D4D3D4E01E0013D0ED035
:100E50003146204600F028FE0028F7D078212046B1
:100E6000002200F015FE3F212046FFF7A3FE0121DE
:100E7000204600F0EFFD314D314E01E0013D0ED036
:100E80003146204600F010FE0028F7D07821204699
:100E9000002200F0FDFDD3212046FFF78BFE01214B
:100EA000204600F0D7FD254D254E01E0013D0ED036
:100EB0003146204600F0F8FD0028F7D07821204682
:100EC000002200F0E5FD00212046FFF773FE01211E
:100ED000204600F0BFFD194D194E01E0013D0ED036
:100EE0003146204600F0E0FD0028F7D0782120466A
:100EF000002200F0CDFDD5212046FFF75BFE012149
:100F0000204600F0A7FD0D4D0D4E01E0013D0ED035
:100F10003146204600F0C8FD0028F7D07821204651
:100F2000002200F0B5FD80212046FFF743FE01219D
:100F3000204600F08FFD014D014E05E0A086010026
:100F400001000300013D0ED03146204600F0ACFD0B
:100F50000028F7D078212046002200F099FDD92101
:100F60002046FFF727FE0121204600F073FD8F4D3C
:100F70008F4E01E0013D0ED03146204600F094FD39
:100F80000028F7D078212046002200F081FDF121D1
:100F90002046FFF70FFE0121204600F05BFD834D48
:100FA000834E01E0013D0ED03146204600F07CFD2D
:100FB0000028F7D078212046002200F069FDDA21D0
:100FC0002046FFF7F7FD0121204600F043FD774D55
:100FD000774E01E0013D0ED03146204600F064FD21
:100FE0000028F7D078212046002200F051FD122180
:100FF0002046FFF7DFFD0121204600F02BFD6B4D61
:101000006B4E01E0013D0ED03146204600F04CFD14
:101010000028F7D078212046002200F039FDDB219E
:101020002046FFF7C7FD0121204600F013FD5F4D6C
:101030005F4E01E0013D0ED03146204600F034FD08
:101040000028F7D078212046002200F021FD402121
:101050002046FFF7AFFD0121204600F0FBFC534D79
:10106000534E01E0013D0ED03146204600F01CFDFC
:101070000028F7D078212046002200F009FD202129
:101080002046FFF797FD0121204600F0E3FC474D85
:10109000474E01E0013D0ED03146204600F004FDF0
:1010A0000028F7D078212046002200F0F1FC002132
:1010B0002046FFF77FFD0121204600F0CBFC3B4D91
:1010C0003B4E01E0013D0ED03146204600F0ECFCE5
:1010D0000028F7D078212046002200F0D9FC4021DA
:1010E0002046FFF767FD0121204600F0B3FC2F4D9D
:1010F0002F4E01E0013D0ED03146204600F0D4FCD9
:101100000028F7D078212046002200F0C1FC8D2174
:101110002046FFF74FFD0121204600F09BFC234DA8
:10112000234E01E0013D0ED03146204600F0BCFCCC
:101130000028F7D078212046002200F0A9FC1421D5
:101140002046FFF737FD0121204600F083FC174DB4
:10115000174E01E0013D0ED03146204600F0A4FCC0
:101160000028F7D078212046002200F091FCA4212D
:101170002046FFF71FFD0121204600F06BFC0B4DC0
:101180000B4E01E0013D10D03146204600F08CFCB2
:101190000028F7D020467821002200F079FC204674
:1011A000BDE87040AF21FFF705BD70BDA08601000E
:1011B000010003002DE9F8430E4601210446724D5B
:1011C00000F048FC714F01E0013D0ED03946204649
:1011D00000F06AFC0028F7D078212046002200F0B9
:1011E00057FC21212046FFF7E5FC0121204600F0B5
:1011F00031FC654D654F01E0013D0ED0394620467A
:1012000000F052FC0028F7D078212046002200F0A0
:101210003FFC00212046FFF7CDFC0121204600F0D5
:1012200019FC594D594F01E0013D0ED03946204679
:1012300000F03AFC0028F7D078212046002200F088
:1012400027FC7F212046FFF7B5FC0121204600F056
:1012500001FC4D4D4D4F01E0013D0ED03946204679
:1012600000F022FC0028F7D078212046002200F070
:101270000FFC22212046FFF79DFC0121204600F0B3
:10128000E9FB414D414F01E0013D0ED0394620467A
:1012900000F00AFC0028F7D078212046002200F058
:1012A000F7FB00212046FFF785FC0121204600F0D6
:1012B000D1FB354D354F01E0013D0ED0394620467A
:1012C00000F0F2FB0028F7D078212046002200F041
:1012D000DFFB07212046FFF76DFC0121204600F0CF
:1012E000B9FB294D294F01E0013D49D0394620463F
:1012F00000F0DAFB0028F7D031460022204600F04B
:10130000C7FB214D224E01E0013D32D0314620463F
:1013100000F0CAFB0028F7D04021204600F0B6FBC1
:101320001C4E01E0013D24D03146204600F0BCFBBC
:101330000028F7D0184F174E07F5806907F180088D
:1013400017F8011B204600F0A1FB01E0013D10D081
:101350003146204600F0A8FB0028F7D04745EFD1E2
:10136000B945EBD12046012100F082FB0020BDE809
:10137000F8832046012100F07BFB0220BDE8F883C2
:101380000120BDE8F88300BFA08601000100030032
:101390008200070084000700000A002000222DE9D7
:1013A000F043284D11462C462846AB185B4213F0FB
:1013B000030336D0012B01703FD0032B417038D18D
:1013C0004FF07D081F4681704FF07C0E4FF01F09D3
:1013D000C3F1800C0026134423440136B14543F881
:1013E000041BFAD807EB0E03E645DBB2A8EB0E07A9
:1013F0000FD002EB030E5E1C012F04F80E10F6B2A4
:1014000007D016440233022FA155DBB201D013449A
:10141000E1548032B2F5806F00F18000C5D1BDE8A3
:10142000F0834FF0800E4FF02009F446F0461F463F
:10143000D0E74FF07E080227C6E74FF07F081F462F
:10144000C2E700BF000A002003292DE9F84F074634
:10145000144640F2BD81E1494FF44072A1F580701D
:1014600000F0A6FB4FF480720021DD4800F004FC80
:101470004FF0030A4FF480624FF44073DFF8688343
:10148000D11A9A42CCBF0A46012208EB0300002180
:1014900000F0F2FB2278002A00F09481D14D6AE13D
:1014A00002360C2EA8BF0C26F319822B3A4640F3C5
:1014B00075810AF1010A5FFA8AFABAF1040F40F065
:1014C0007A81C6494FF44072A1F5807000F070FB3C
:1014D0004FF480720021C24800F0CEFB4FF46079D7
:1014E0004FF480624FF4407B4FF0030AA2EB0B01F4
:1014F0005A45CCBF0A46012208EB0B00002100F040
:10150000BBFB0022584617462178012EA1F120018D
:1015100001EB810101EB8101294491F8911E08F84A
:1015200000102178A1F1200101EB810101EB810183
:10153000294491F8901E08F8091000F017812178CD
:1015400008EB0203203901EB810101EB8101294401
:1015500091F8931E5B4459702178022EA1F120016D
:1015600001EB810101EB8101294491F8921E83F87E
:10157000811000F0FB802178032EA1F1200101EB06
:10158000810101EB8101294491F8951E9970217820
:10159000A1F1200101EB810101EB8101294491F8C6
:1015A000941E83F8821000F0E1802178042EA1F1CE
:1015B000200101EB810101EB8101294491F8971E83
:1015C000D9702178A1F1200101EB810101EB8101AA
:1015D000294491F8961E83F8831000F0C780217883
:1015E000052EA1F1200101EB810101EB81012944CC
:1015F00091F8991E19712178A1F1200101EB810167
:1016000001EB8101294491F8981E83F8841000F0C1
:10161000AD802178062EA1F1200101EB810101EBC3
:101620008101294491F89B1E59712178A1F1200173
:1016300001EB810101EB8101294491F89A1E83F8A5
:10164000851000F093802178072EA1F1200101EB95
:10165000810101EB8101294491F89D1E9971217846
:10166000A1F1200101EB810101EB8101294491F8F5
:101670009C1E83F8861079D02178082EA1F12001D4
:1016800001EB810101EB8101294491F89F1ED97181
:101690002178A1F1200101EB810101EB81012944B5
:1016A00091F89E1E83F8871060D02178092EA1F151
:1016B000200101EB810101EB8101294491F8A11E78
:1016C00019722178A1F1200101EB810101EB810167
:1016D000294491F8A01E83F8881047D021780A2E5B
:1016E000A1F1200101EB810101EB8101294491F875
:1016F000A31E59722178A1F1200101EB810101EBB8
:101700008101294491F8A21E83F889105ED02378C4
:101710004244203B03EB830303EB83032B4493F806
:10172000A53E5A44937223780C2EA3F1200303EBB9
:10173000830303EB83032B4493F8A43E82F88A309F
:1017400042D12378203B03EB830303EB83032B4439
:1017500093F8A73ED3722378203B03EB830303EB7C
:1017600083032B4493F8A63E82F88B3014F8012FA4
:101770003E44F7B232B3A2F1200303EB830303EB41
:101780008303303A2B44092A93F8A86E3FF688AEBB
:101790000C26F319822B3A463FF78BAE802B01DDE6
:1017A000023EE3D04FEA0A2B07F1800307EB0B0060
:1017B00003EB0B09A8E64FEA0A2B0BF580720BF13D
:1017C000800993E6BDE8F88F0B26CFE70A26CDE720
:1017D0000B028A4603F5807250E600BF000B002022
:1017E000000D002044620008000A00202DE9F043AB
:1017F000012187B00820FFF757F801214FF40010AE
:10180000FFF75EF8C02403221C2301A93F488DF88E
:1018100006208DF80730ADF80440FEF799FD3C48EE
:1018200000F07CF839250121394800F005F9002441
:101830004FF480624FF480434BF6FF76354806A99B
:1018400041F8100DADF810503148334DADF812206D
:10185000ADF80C40ADF81430ADF80E6000F07CF837
:1018600078212B48FFF7E2F92246214628462C46EC
:10187000AB185B4213F0030337D0012B017040D04B
:10188000032B417039D14FF07D081F4681704FF016
:101890007C0E4FF01F09C3F1800C00261344234433
:1018A0000136B14543F8041BFAD807EB0E03E645B1
:1018B000DBB2A8EB0E070FD002EB030E5E1C012F6C
:1018C00004F80E10F6B207D016440233022FA155C9
:1018D000DBB201D01344E1548032B2F5806F00F1E5
:1018E0008000C5D107B0BDE8F0834FF0800E4FF007
:1018F0002009F446F0461F46CFE74FF07E08022746
:10190000C5E74FF07F081F46C1E700BF000C01404C
:101910000054004020BF0200000A002008B50D4B13
:10192000012198420AD04FF48000FEF7D5FFBDE8B0
:10193000084000214FF48000FEF7CEBF4FF40010A6
:10194000FEF7CAFFBDE8084000214FF40010FEF783
:10195000C3BF00BF00540040F0B504460D4687B039
:10196000868801A8FEF754FF0398304926F03F0609
:10197000A1FB00313604890C360C8FB23E43A680A1
:1019800022882B6822F00102294E1204120CB34265
:10199000228022D85B00B0FBF3F39BB2042B38BF4C
:1019A000042301372784A3832288A98892B242F0B6
:1019B0000102228023886E8923F4816323F00203CD
:1019C000AA8928891B0431431B0C0B4302439BB299
:1019D00092B22380228107B0F0BD4BF6FF72EE88F1
:1019E00096421DD003EB830303EB8303B0FBF3F3B9
:1019F0009BB243F48043C3F30B020AB943F00103E3
:101A00004FF4967202FB01F10A48CA1780FB0101EC
:101A1000C2EBA112013292B243F400432284C2E726
:101A200003EB4303B0FBF3F39BB2E4E783DE1B431A
:101A3000A0860100D34D6210038829B923F0010369
:101A40001B041B0C038070479BB243F0010303800F
:101A5000704700BF038829B923F480731B041B0C53
:101A6000038070479BB243F480730380704700BFCC
:101A7000038829B923F400731B041B0C03807047EF
:101A80009BB243F400730380704700BF018270472C
:101A900022B901F0FE0189B20182704741F00101D3
:101AA00089B20182704700BF838A008B9BB243EAF0
:101AB000004321F07F401840401AB0FA80F04009FE
:101AC000704700BF844641EA000313F0030349D185
:101AD000403A23D30B6803604B6843608B68836094
:101AE000CB68C3600B6903614B6943618B69836198
:101AF000CB69C3610B6A03624B6A43628B6A836280
:101B0000CB6AC3620B6B03634B6B43638B6B836367
:101B1000CB6BC36340304031403ADBD230320BD321
:101B20000B6803604B6843608B688360CB68C3605D
:101B300010301031103AF3D20C3205D351F8043B77
:101B400040F8043B043AF9D2043208D0D2071CBF53
:101B500011F8013B00F8013B01D30B88038060467C
:101B6000704700BF082A13D38B07B1D010F00303CE
:101B7000AED0C3F10403D21ADB071CBF11F8013B3E
:101B800000F8013BA4D331F8023B20F8023B9FE769
:101B9000043AD9D3013A11F8013B00F8013BF9D2DC
:101BA0000B7803704B7843708B7883706046704776
:101BB0008842F0B50DD98B1898420AD28418002AB1
:101BC00051D0224613F8014D994202F8014DF9D146
:101BD000F0BD0F2A48D941EA00039B0746D11546BC
:101BE00000F1100401F1100353F8106C103D44F89B
:101BF000106C53F80C6C0F2D44F80C6C53F8086CF7
:101C000004F1100444F8186C53F8046C03F1100349
:101C100044F8146CE8D8A2F1100323F00F0302F08B
:101C20000F0E1033BEF1030F1944034421D90E46A1
:101C300074461D1F56F8047B043C032C45F8047FB2
:101C4000F8D8AEF1040424F00304043421442344FE
:101C500002F0030262B1013B0A4411F8014B8A42CF
:101C600003F8014FF9D1F0BD0346F3E70346F2E76D
:101C7000F0BD7246EEE700BF70B4860746D0541E32
:101C8000002A41D0CAB2034602E014F1FF343BD32C
:101C900003F8012B9D07F8D1032C2ED9CDB245EACC
:101CA00005250F2C45EA054519D9264603F11002F2
:101CB000103E0F2E42F8105C42F80C5C42F8085CB3
:101CC00042F8045C02F11002F2D8A4F1100222F0F2
:101CD0000F0204F00F041032032C13440DD91E46DA
:101CE0002246043A032A46F8045BFAD8221F22F05F
:101CF00003020432134404F003042CB1C9B21C449F
:101D000003F8011B9C42FBD170BC7047144603468C
:101D1000C2E700BF0EB40146F0B56FF000454FF4C6
:101D200002774FF6FF769CB021AC54F8042B0B4B96
:101D300002910691186802A923460194ADF8147027
:101D400004950795ADF8166000F00AF80022029B92
:101D50001A701CB0BDE8F04003B0704714000020BA
:101D60002DE9F04FC3B00C460B9192460F930C90A7
:101D700002F02CFA036818461A9303F037F8A38987
:101D80001990190603D52369002B01F03580002333
:101D90000DF1C809C84615931393149318931B9318
:101DA00009931693179327932693CDF894909AF856
:101DB00000305446EBB1252B02D11AE0252B03D07D
:101DC00014F8013F002BF9D1A4EB0A058DB1269B35
:101DD000279A01332A44072BC8F800A0C8F80450FA
:101DE0002792269300F38A8008F10808099B2B4468
:101DF00009932378002B00F0898000234FF0FF30F7
:101E00001A468DF8773019460D939B46637804F196
:101E1000010A0A900AF1010AA3F12000582800F2F1
:101E2000B783DFE810F04C03B503B5035403B503E3
:101E3000B503B503B503B503B50359005903B5039D
:101E400066001402B5032F02A503A503A503A5038D
:101E5000A503A503A503A503A503B503B503B50312
:101E6000B503B503B503B503B503B503B5038B02DD
:101E7000D302B503D302B503B503B503B5031B0302
:101E8000B503B5032003B503B503B503B503B50327
:101E90003402B503B5034B02B503B503B503B5036F
:101EA000B503B503B503B503B503B50376029E03C9
:101EB000D302D302D30263039E03B503B5036803C1
:101EC000B5037503DD018C035E03B503F201B503B1
:101ED0008700B503B50332030F9C236818460D93A2
:101EE0002346002803F104030F9304DA0D9B5B42A1
:101EF0000D934BF0040B9AF800308BE725AA0B9951
:101F00000C9802F0A1FF40B9C8466FE7279B23B1A8
:101F10000C9825AA0B9902F097FF0B9B9B8913F055
:101F2000400F099B18BF4FF0FF330993099843B046
:101F3000BDE8F08F1BF0200F119340F0AF810F9A96
:101F40001BF0100F134640F09A851BF0400F00F075
:101F5000968500250123148804320F92002217462B
:101F60008DF877200A994A1C00F010822BF080022D
:101F7000079254EA050240F00F82002940F03184B4
:101F8000002B40F039851BF001030E9300F06286B0
:101F9000302342AE06F8413D0A9B0E9A9342B8BFE9
:101FA000134608930023129317B1089B013308933B
:101FB000079B13F00203109302D0089B023308938F
:101FC000079B13F0840540F010830D9B089AA3EB48
:101FD000020BBBF1000F40F30883BBF1100F40F37D
:101FE000B287279C43462146A8461027269A0C9C78
:101FF0000B9D06E0ABF1100BBBF1100F03F10803D2
:1020000018DD0132AB481031072A2791269283E868
:102010008100EFDD25AA2946204602F015FF0028A1
:102020007FF47BAFABF1100BBBF1100F4B46279940
:10203000269AE6DC45460C46984601329D4B5C44A8
:10204000072A2794269288E8080800F3C3829DF89F
:10205000777008F1080887B10121269B0C440B44D6
:102060000DF17702072B27942693C8F80410C8F8BF
:10207000002000F3CD8308F10808109B7BB10221FA
:10208000269B0C4401331EAA072B27942693C8F8DD
:102090000410C8F8002000F3118408F10808802D0E
:1020A00000F004830A9B0E9A9F1A002F37DD102F31
:1020B00040F37986804D42462146B0464FF0100BE2
:1020C0002E46269B0C9C0B9D04E0103F102F02F126
:1020D000080215DD01331031072B2791269382E882
:1020E0004008F2DD25AA2946204602F0ADFE002870
:1020F0007FF413AF103F102F4A462799269BE9DC47
:1021000035460C464646904601333C44072B2794FF
:10211000269388E8A00000F3708308F10808079B65
:10212000DF0500F16482269B0E9901330C44072BD6
:102130002794C8F80060C8F80410269300F3B3830E
:1021400008F10808079B5B073BD50D9B089A9D1A71
:10215000002D36DD102D40F321871026269B0C9F85
:10216000DDF82CB004E0103D102D08F1080816DD54
:102170000133504A1034072B2794269388E84400F3
:10218000F1DD25AA5946384602F05EFE00287FF4AC
:10219000C4AE103D102DC846279C269BE8DC0133B9
:1021A000444A2C44072B2794269388E8240008DD12
:1021B00025AA0B990C9802F047FE00287FF4ADAEDB
:1021C000279C099B0D9A08998A42ACBF9B185B1803
:1021D0000993002C40F0FB820023C8462693E6E5D5
:1021E00011931BF0200340F045811BF0100240F0DA
:1021F00066841BF0400300F062840F9913460A4680
:1022000004320C8800250F92A8E600250F9A11933E
:1022100016688DF87750141D002E00F0CD860A9AAE
:10222000531C00F01B862946304602F07FFA002836
:1022300000F00D87831B0A950E930F94CDF81CB008
:1022400023EAE373089312959DF87770ACE69AF849
:1022500000300AF101042A2B00F0C287A3F13000FC
:102260000928A24600F2188700231C461AF8013BF1
:1022700004EB840400EB4404A3F130000928F5D9F1
:102280000A94C9E54BF0800B9AF80030C2E54BF098
:10229000100B1BF0200F11933FF451AE0F9C07342D
:1022A00024F0070303F10802D3E900450F9201234C
:1022B00054E600BF307A0008407A00081193002AE3
:1022C00040F0AD87BE4B1BF0200F189340F0E78025
:1022D0000F9A1BF0100F134640F0D8831BF0400FED
:1022E00000F0D4830025043314880F931BF0010FF2
:1022F00000F0E38054EA050300F0DF8030239DF80E
:1023000044208DF878308DF879204BF0020B0223B1
:1023100024E601221193002311460F9808920268C7
:102320001F468DF877300A931293031DCDF81CB029
:102330000E918DF8A0200F9328AE39E61193002A54
:1023400040F084874BF0100B1BF0200F40F0758499
:102350000F9A1BF0100F134640F09D831BF0400FA7
:1023600000F09983B2F900400433E5170F93224639
:102370002B46002A73F10003C0F298830A999DF856
:1023800077704A1C4FF001037FF4F0AD54EA050268
:1023900000F02982CDF81CB0012B00F00E83022B37
:1023A00040F09C824E461898230943EA0573290998
:1023B00004F00F020D461C46835C06F8013D54EA0A
:1023C0000503F1D1A9EB06030E93E5E51193002A6D
:1023D00040F038870F9C1BF0080F04F1070400F051
:1023E000CF8424F0070303F108020F921A685B6898
:1023F00015921493149B159D23F000442846214602
:102400004FF0FF326F4B03F031FD002840F0348471
:10241000284621464FF0FF326A4B03F009FD0028A1
:1024200040F02A8415A80DC8149903F0F7FC002881
:1024300040F0D4859DF8777003231A460893002353
:10244000614E19460A93614B0E92119A2BF080004F
:1024500007901291472AD8BF1E46A5E54BF0080BFE
:102460009AF80030D6E44BF0100B11931BF02003C8
:102470003FF4BBAE0F9C073424F0070303F10802BE
:10248000D3E900450F92002368E51193002A40F03C
:10249000C2864F4B1BF0200F18933FF419AF0F9CCF
:1024A0001BF0010F04F1070424F0070303F10802F5
:1024B0000F92D3E900457FF41DAF02234EE59AF851
:1024C000003000297FF4A6AC01222021A2E44BF0C9
:1024D000010B9AF800309DE49AF8003001222B217C
:1024E00098E44BF0200B9AF8003093E44BF0400B4B
:1024F0009AF800308EE49AF800306C2B03BF9AF8FB
:1025000001304BF0200B0AF1010A4BF0100B81E473
:10251000002A40F07C861BF0200F40F052841BF014
:10252000100F40F038841BF0400F00F034840F9AF5
:10253000136804320F92BDF824201A8037E4782300
:1025400030220F988DF879301193031D0F93204B93
:10255000046818934BF0020B8DF8782000250223B5
:10256000FCE41193002A3FF4EFAE8DF87710EBE610
:1025700000200446A3F130001AF8013B04EB840468
:1025800000EB4404A3F130000928F5D90D9443E48D
:102590001193002A40F04A86119A002A3FF4B6AC03
:1025A000002301211F4608918DF8A020CDF81CB012
:1025B0008DF877300A9312930E9128AEF8E400BF9D
:1025C000FC790008FFFFEF7FF0790008EC79000844
:1025D000107A000825AA0B990C9802F035FC002807
:1025E0007FF49BACC8469DF87770279C33E5119B20
:1025F000652B40F39A8015A80DC8149903F004FCCC
:10260000002800F093810121269BB54A0B440C441D
:10261000072B27942693C8F80410C8F8002000F36D
:10262000C68308F108081F9B139A279C934203DB7B
:10263000079BDD077FF586AD269B199901331A9A12
:102640000C44072BC8F80020C8F8041027942693E0
:1026500000F3C48308F10808139B5E1E002E7FF769
:1026600071AD102E40F3758522461027269B9D4D97
:10267000DDF830B00B9C05E008F10808103E102E84
:1026800040F3258201331032072B2792269388E8E6
:10269000A000F1DD25AA2146584602F0D5FB00280E
:1026A0007FF43BACC846279A269BE7E70D9B089A28
:1026B0009F1A002F7FF7F6AC102F40F3A884894DA6
:1026C00042462146B0464FF0100B2E46269B0C9CEE
:1026D0000B9D04E0103F102F02F1080215DD0133BD
:1026E0001031072B2791269382E84008F2DD25AAB6
:1026F0002946204602F0A8FB00287FF40EAC103FCC
:10270000102F4A462799269BE9DC35460C4646465B
:10271000904601333C44072B2794269388E8A00079
:1027200000F39E8208F10808BCE4139B012B40F3E0
:102730004F820123269F1C441F44072F2794C8F86B
:1027400000602697C8F8043000F35F8208F108089B
:10275000199A01371A9B1444072F27942697C8F813
:102760000030C8F8042000F35C8208F1080815A8BE
:102770000DC8149903F048FB139B002840F04181D9
:10278000013B013701361C44072FC8F8006026972B
:102790002794C8F8043000F3668108F108081B9AF2
:1027A0000137144421AB072F27942697C8F804203B
:1027B000C8F800307FF7C4AC25AA0B990C9802F03A
:1027C00043FB00287FF4A9ABC846279CBAE425AA9E
:1027D0000B990C9802F038FB00283FF4FDACFFF792
:1027E0009CBBDDF81CB0012B00F07E81022B71D167
:1027F000CDF81CB000240025D4E525AA0B990C982F
:1028000002F022FB00287FF488ABC846279C86E4B0
:1028100025AA0B990C9802F017FB00287FF47DABDA
:10282000C846279C29E40120269B2D4A03440444E2
:10283000072B27942693C8F80400C8F8002040F31B
:10284000D88225AA0B990C9802F0FEFA00287FF492
:1028500064ABC8461F99279C29B9139B1BB9079BDA
:10286000D8077FF56FAC1998269B024601332244A6
:102870001A9C072B2792C8F80040C8F8040026933A
:1028800000F3318408F108080029C0F20984139983
:1028900001338C18072B27942693C8F80060C8F8DA
:1028A00004107FF74DAC25AA0B990C9802F0CCFAD6
:1028B00000287FF432AB279CC84643E425AA0B9935
:1028C0000C9802F0C1FA00287FF427ABC846279C79
:1028D000FFF7E5BB00240025CDF81CB0494604E015
:1028E0002C7A0008407A00083146E20842EA457234
:1028F000E80804F0070305461446303354EA05029D
:1029000001F8013C01F1FF36EED1079AD2077FF5BD
:1029100059AD302B3FF456AD3023023906F8013C57
:10292000A9EB01030E930E46FFF736BB1F99002952
:102930007FF779AF129B139A9342A8BF1346002BDF
:102940001F460BDD269B3C440133072B279488E868
:10295000C000269300F3FB8208F10808129B002FA9
:10296000A8BFDB1B002B1F4640F3D780102B40F382
:102970003484BA4D42462146B0464FF0100B2E46E5
:10298000269B0C9C0B9D04E00832103F102F40F357
:10299000B58001331031072B2791269382E8400838
:1029A000F2DD25AA2946204602F04EFA00287FF4DF
:1029B000B4AA4A462799269BE7E7002D08BF0A2CB0
:1029C000C0F090804E46204629460A22002303F09C
:1029D0008BFA303206F8012D2046294600230A22C0
:1029E00003F082FA04460D4654EA0503EBD1A9EB45
:1029F00006030E93FFF7D0BA0A9B4E460E93FFF7DD
:102A0000CBBA5E1E002E7FF7CAAE102E40F3E383D2
:102A100022464FF0100B914D0C9C04E0103E102EFE
:102A200008F1080815DD01371032072F2792269785
:102A300088E82008F2DD25AA0B99204602F004FA66
:102A400000287FF46AAA103E102EC846279A269FB7
:102A5000E9DC144601373444072F2794269788E889
:102A600060007FF79AAE25AA0B990C9802F0ECF95A
:102A700000287FF452AA279C269FC8468FE604327E
:102A80001C68002501230F92FFF768BA1C68043305
:102A90000F9300252AE41C680433E51722460F93A0
:102AA0002B46002A73F10003BFF668AC2D27644261
:102AB00065EB45058DF877700123FFF753BA0F9941
:102AC00000250A4604320C680F92FFF747BA1446F5
:102AD00001333444072B2794269388E860007FF75E
:102AE0002FABE0E6DDF81CB0012342AE3034CDF868
:102AF0001CB006F8414D0E93FFF74EBA35460C4612
:102B00004646904601333C44072B2794269388E899
:102B1000A00000F3468208F108081F9A139B9A420E
:102B200045DB079BD90742D4139B12989A1A1D1AAA
:102B30009542A8BF1546002D0EDD269906440131A9
:102B40002C440729C8F800602794C8F8045026913F
:102B500000F3168208F10808002DB4BF1646561B74
:102B6000002E7FF7EFAA102E40F3F38222461027A3
:102B7000269B3A4DDDF830B00B9C04E008F10808C4
:102B8000103E102EA3DD01331032072B279226931F
:102B900088E8A000F2DD25AA2146584602F054F943
:102BA00000287FF4BAA9C846279A269BE8E7269B07
:102BB000199801331A990444072B2794C8F8001078
:102BC000C8F80400269300F3CF8108F10808ABE7AA
:102BD000079BDA073FF5ADAD0123269F1C441F4438
:102BE000072F2794C8F800602697C8F804307FF7AD
:102BF000D4AD25AA0B990C9802F026F900287FF491
:102C00008CA9C846279C269FC9E525AA0B990C9834
:102C100002F01AF900287FF480A9C846279C269F55
:102C200096E525AA0B990C9802F00EF900287FF47E
:102C300074A9C846279C269F99E50F9C073424F069
:102C4000070404F10801D4E900230F9114461D463E
:102C5000FFF78FBB4E46FFF79FB900BF407A0008D1
:102C600025AA0B990C9802F0EFF800287FF455A9DB
:102C7000C846279CFFF716BA159C22462046149C8E
:102C80002346214603F0F2F8002840F073820A9BA5
:102C90000133119B23F020030E9300F09C81472BFE
:102CA00000F0D6804BF480730793149B1F1E159B76
:102CB0000893B7BF3B46002303F100472D23109331
:102CC000119B662B00F09081462B00F0A48002201F
:102CD0000E9B23A9452B0ABF0A9B0A9D5D1C8DE80C
:102CE0002100049120A81FA93B460390089A029155
:102CF0000C9800F049FB119B0646672B40F0BA8107
:102D00001BF0010F00F023827419169A0898179B84
:102D1000394603F079F8002840F02481239BA34230
:102D200006D230215A1C23921970239B9C42F9D859
:102D30009B1B13930E9B472B00F0A280119B652BCE
:102D400040F3A781119B662B1F9B129300F07181AA
:102D5000139B129A1946914200F35D811BF0010FFB
:102D600040F0F08122EAE273089367230E921193F8
:102D7000109B002B7DD10A939DF87770FFF714B953
:102D800024F00704236815936368149304F108037F
:102D90000F93FFF72FBB0F9A136804320F92099A13
:102DA0001A60FFF704B8269BAF4DFFF7ADB925AA0F
:102DB0000B990C9802F048F800287FF4AEA8C8469A
:102DC00031E40F9A134604330F93099B1168DD1702
:102DD0001A462B46C1E90023FEF7E9BF25AA0B9945
:102DE0000C9802F031F800287FF497A8C846279C79
:102DF00032E408F108082FE540210C9801F0F4F9BD
:102E00000B9A10601061002800F0148240230B9A86
:102E10005361FEF7BCBF03200A9C23A98DE8110073
:102E2000049120A81FA90390089A3B4602910C9890
:102E300000F0AAFA25460646119B7419462B7FF42A
:102E400064AF3378302B00F087811F9D2C445CE702
:102E50000A9B002B08BF01230A9323E730460A95FB
:102E600001F0C4FF0F940E90CDF81CB00346FFF79D
:102E7000E7B92D2700238DF877700A93FFF795B8EF
:102E80001F9B1A461293033304DB0A9B1946914297
:102E9000BFF65EAF119B023B1193129B9DF844203D
:102EA000013B002B8DF88420B4BF2D222B221F93D1
:102EB000B8BF129B8DF88520B8BFC3F10103092B61
:102EC00040F31F810DF193000146684C00E011466C
:102ED00084FB0352DD17C5EBA20505EB8502A3EBCE
:102EE00042023032092D01F8012C2B4601F1FF324C
:102EF000EDDC30330239DCB2884202F8014C40F29A
:102F000092810DF18601134601E013F8014B8342D3
:102F100001F8014BF9D101339B1A0DF186021344DC
:102F200021AA9B1A139A1B93012A13440E9340F370
:102F300048810E9B199A13440E9323EAE373089376
:102F40000023129314E7279C269AFFF776B825AA48
:102F50000B990C9801F078FF00287EF4DEAFC8468C
:102F6000279CFBE42346E3E625AA0B990C9801F085
:102F70006BFF00287EF4D1AFC8461F9A279CD3E58B
:102F800025AA0B990C9801F05FFF00287EF4C5AFCD
:102F90001F9A139BC846279C9A1ADDE5269BFFF7CC
:102FA000FEB825AA0B990C9801F04EFF00287EF47C
:102FB000B4AFC846279CB0E50A9B3746062B28BF0E
:102FC00006230A96129608930F94CDF81CB00E9320
:102FD000274EFEF7E9BF06230A9363E62D231F461B
:102FE0008DF87730FFF728BA03200A9C23A98DE8D3
:102FF0001100049120A81FA90390089A3B46029152
:103000000C9800F0C1F925460646041919E7269BDD
:10301000154DFFF77EBB199A139B1344129A0E931A
:10302000002A40F3C78023EAE373089367231193D0
:103030009EE6002B40F3E1800A9A002A40F0B0801F
:103040001BF0010F40F0AC8008930E9390E60A9BB2
:103050000F9408930E930A90CDF81CB012909DF82F
:103060007770FEF7A1BF00BF407A0008676666660A
:10307000247A0008119B472B7FF446AE1BF0010F0A
:103080007FF4DAAE239B9B1B13930E9B472B3FF4DD
:10309000F7AE1F9B129300E700200A90FEF7BCBE1C
:1030A0004F42103135DA10246A4DDDF830B004E0BB
:1030B00008F10808103F102F2CDD01331032072BC8
:1030C00027922693C8F80050C8F80440F0DD25AADE
:1030D0000B99584601F0B8FE00287EF41EAFC84692
:1030E000279A269BE6E725AA0B990C9801F0ACFEDF
:1030F00000287EF412AFC8461F99279A269BFFF737
:10310000C3BB302213448DF887308DF8862022AB64
:1031100006E7504D01333A44072B88E8A000279278
:10312000269308F108087FF7B2AB25AA0B990C98F3
:1031300001F08AFE00287EF4F0AEC846279A269B4E
:10314000FFF7A5BB129B199A13440E936BE7239BC1
:10315000EEE5269B3F4DBBE4169A0898179B39462F
:1031600002F052FE00287FF470AEC5F101051F95F4
:103170002C44CAE5149B384E002BBEBF2D231F469E
:103180008DF877304FF003031A4608934FF0000391
:10319000A8BF9DF8777019460A93304BFFF754B9D2
:1031A000129B199A13440A9A1A4422EAE2730E9265
:1031B0000893DDE5129B0E9AC3F101031A441346EE
:1031C000C3E71BF0010312937FF4B3AE0E9B23EA17
:1031D000E3730893CCE51F4D3CE4269B1D4D91E421
:1031E0000F9D9AF801302868A24640EAE0700A90E4
:1031F000284604300F90FEF70DBE0A9B13B91BF052
:10320000010F02D0199B0133CDE701231CE78DF894
:103210007710FFF780B98DF87710FFF73AB98DF87E
:103220007710FFF74FB80DF1860379E68DF8771028
:10323000FFF7B2B94FF0FF320C2309920C9A1360DA
:10324000FEF774BE8DF87710FFF7C4B88DF87710CD
:10325000FFF778B8407A0008F8790008F479000898
:103260002DE9F04F03690F6983B09F4200F3888016
:10327000013F01F1140600F1140A56F827305AF8FC
:1032800027200133B2FBF3F8BB00009306EB0309E0
:1032900053440193B8F1000F3BD00023B4461C46C1
:1032A000D6465CF8042BDEF800501FFA82FB08FBC0
:1032B0000B33120C4FEA134B08FB02BB9AB2A21A53
:1032C000ABB21FFA8BF41A44C4EB154404EB22444E
:1032D00092B242EA0442E1454EF8042B4FEA2444FC
:1032E0004FEA1B43DDD2009B5AF803308BB9019C97
:1032F000231F9A450CD254F8043C4BB9A4F108039F
:1033000002E01A68043B1AB99A4507F1FF37F8D36F
:103310000761044601F05AFC00282DDB55460023C6
:1033200008F1010856F8041B28688AB29A1A0B0C97
:1033300081B20A44C3EB104303EB224392B242EA48
:103340000342B14545F8042B4FEA2343EAD25AF829
:1033500027200AEB87037AB91A1F92450BD253F83C
:10336000042C42B9083B02E01A68043B1AB99A459A
:1033700007F1FF37F8D32761404603B0BDE8F08F6F
:10338000002003B0BDE8F08F2DE9F04F056C9BB035
:10339000044692469B46279E4DB10123426C294626
:1033A0009340AB606A6001F039FA00232364BBF1FB
:1033B000000F5D4635DB002333609D4BAB4315D0DA
:1033C000002200235046594602F01EFD8046002888
:1033D0002DD00123269A1360289B002B00F0BD807E
:1033E0009448186001381BB0BDE8F08F42F20F73AB
:1033F000269A1360BAF1000F0DD1C5F3130555B924
:10340000289B8D48002BEED000F10803289A13600A
:103410001BB0BDE8F08F289B8848002BE3D0C31C6D
:10342000F4E701232BF000453360AB46C5E718AA4B
:1034300019AB0192009352465B46204601F070FCA6
:103440002B0D814671D05046CBF3130242F07F51D1
:10345000189FA3F2FF36CDF8508041F440110022AE
:10346000774B02F0B5F86CA3D3E9002302F064FABD
:103470006BA3D3E9002302F0ADF8CDE90201304699
:1034800002F0F4F968A3D3E9002302F055FA0246EA
:103490000B46DDE9020102F09DF8CDE9040102F0DE
:1034A000FBFC002202900023DDE9040102F0B6FCDF
:1034B000002840F06D81029D162D00F25781614970
:1034C000524601EBC5015B46D1E9000102F0C4FCA4
:1034D000002800F0BE816B1E029300230E93BF1BD9
:1034E0007B1E089300F14E8100230A93029B002B60
:1034F000C0F23F81089A0D931146194400230891A8
:103500000C93249B092B2AD8052B40F358860025C1
:10351000043B2493249B023B032B00F23F86DFE80D
:1035200013F0CE03C302D9035B04189F199E3E44D7
:1035300006F23243202B40F38781C3F1400306F2A9
:1035400012409D402AFA00F0284302F07FF901233F
:10355000013E1493A1F1F87181E73B4843E7002154
:1035600020466164259101F033F94FF0FF33079352
:103570000F930123259A0490206424920B93199BA6
:10358000002BC0F2D380029A0E2A00F3CF802D4B7D
:1035900003EBC203D3E90023CDE90823259B002BCD
:1035A000C0F2B483DDE9085650462A4633465946F0
:1035B00002F0ECFA02F070FC804602F057F92A465D
:1035C000334602F0B9F902460B465046594601F01F
:1035D000FFFF079E049F08F13005012E3D70024653
:1035E0000B4607F1010564D00022184B02F0A4F944
:1035F0000022002306460F4602F006FC002840F099
:103600008280CDF828904FF0000ADDE908894FF05C
:10361000000B0B9429E000BF61436F63A787D23F83
:10362000B3C8608B288AC63FFB799F501344D33FB1
:103630000000F07F2D7A0008507A00085C7A0008BC
:103640000000F83F887A00082C7A00080000244027
:103650000022814B02F070F952465B4606460F4647
:1036600002F0D2FB002840F0BA8342464B46304677
:10367000394602F08BFA02F00FFC044602F0F6F82D
:1036800042464B4602F058F902460B463046394650
:1036900001F09EFF04F1300605F8016B049E079FC0
:1036A000AE1BBE4202460B46D2D1A046DDF82890A2
:1036B0000B9C1046194601F08DFF06460F46024648
:1036C0000B46DDE9080102F0A9FB48B9DDE9080174
:1036D00032463B4602F098FBA8B118F0010F12D019
:1036E00015F8018C6B1E049A04E09A4200F00284E3
:1036F00013F8018DB8F1390F03F10105F5D008F188
:10370000010883F800804946204601F087F800222E
:10371000029B2A70269A01331360289B002B00F02D
:103720009F8304981D601BB0BDE8F08F0B9A002AA0
:103730003ED0249A012A40F31183079B0C9A5F1E06
:10374000BA42C0F29083D71B079B002BC0F28C8437
:103750000A9D079B0A9A01211A440A92089A204658
:103760001A44089201F0F6F8064623E001230E936E
:10377000B5E600230A9A0D93029BD21A5B420A9285
:103780000C93BEE6C7F101030A9300230893ADE64C
:10379000029D284602F06AF802460B46DDE9040164
:1037A00002F032FB00287FF486AE6B1E029382E6A5
:1037B0000AADE0CD002D0CDD089900290B4608DD8F
:1037C000A942A8BF2B460A9AED1AD21ACB1A0A921E
:1037D00008930C9BD3B10B9B002B00F0B882002FF9
:1037E00010DD31463A46204601F050F94A4601467E
:1037F0000646204601F0B8F8034649462046994659
:1038000001F00CF80C9BDA1B40F0A282012120464B
:1038100001F0A0F80D9B8046002B1FDD01461A46E3
:10382000204601F033F9249B8046012B40F355825A
:1038300000230C93D8F8103008EB8303186901F0CB
:1038400039F8C0F1200013E0C3F120050AFA05F0B1
:103850007BE60E9043E600BF00002440249B012B32
:1038600040F3858200230C930D9B0120002BE1D1B6
:10387000089A104410F01F0000F0A180C0F120034E
:10388000042B40F386840A9BC0F11C0003440A9376
:1038900013460344054408930A9B002B05DD494663
:1038A0001A46204601F042F98146089B002B05DDAF
:1038B00041461A46204601F039F980460E9B002BFE
:1038C00040F08680079B002B40F364820B9B002B0B
:1038D00000F09880002D05DD31462A46204601F093
:1038E00025F906460C9B002B40F036830896079B73
:1038F000049A013BD3180B9317460AF00103C24602
:10390000DDF820B00C9351464846FFF7A9FC31463C
:103910000546484601F05AF95A4607905146204656
:1039200001F070F9C268804605F13003002A40F0CA
:103930002982014648460A9301F048F94146089019
:10394000204600F06BFF089A0A9B32B9249921B9EE
:103950000C9A002A00F0EE83249A07990029C0F2FD
:103960009F8205D1249919B90C99002900F09882F9
:10397000002A00F305830B9A07F1010897423B7078
:10398000454600F00B83494600230A22204600F0FA
:103990004FFF5E45814631464FF000034FF00A026B
:1039A000204600F0E98100F043FF59460646002317
:1039B0000A22204600F03CFF47468346A3E71C202E
:1039C0000A9B054403440A93089B0344089363E756
:1039D0004146484601F0FAF80028BFF673AF029F4F
:1039E000494600230A222046013F029700F020FFAB
:1039F0000B9B8146002B40F0B5830F9B002B40F3BF
:103A0000BE830793DDF810A0079F554606E04946A0
:103A100000230A22204600F00BFF8146414648461B
:103A2000FFF71EFC303005F8010BA5EB0A03BB4283
:103A3000EDDB049B079A8246012AACBF9B18013339
:103A40004FF0000B1D4649460122204601F06EF85A
:103A50004146814601F0BAF8002840F33F8215F84C
:103A6000012C6B1E049904E08B4200F0AE8113F828
:103A7000012D392A03F10105F6D001321A704146B1
:103A8000204600F0CBFE002E3FF43DAEBBF1000F10
:103A900005D0B34503D05946204600F0BFFE31465D
:103AA000204600F0BBFE2EE600230B93029B259AD6
:103AB00013440F930133012B1F461E46B8BF012745
:103AC00007930021172F61640AD9012204235B00A8
:103AD00003F114008742114602F10102F7D261643A
:103AE000204600F075FE0E2E049020643FF647AD90
:103AF000002D3FF444AD0299CDE910AB002940F30D
:103B00000382B94B01F00F020D1103EBC203E9066A
:103B1000D3E9006740F1AF81B44B5046D3E90823A5
:103B2000594602F033F84FF0030ACDE9120105F0CF
:103B30000F058DB1DFF8B482EA0709D5D8E9002373
:103B40003046394601F0F8FE06460F460AF1010AF2
:103B50006D1008F10808EFD13B46DDE9120132464D
:103B600002F014F8074688460E9B43B10022A04B92
:103B70003846414602F052F9002840F0878250460C
:103B800001F074FE3A46434601F0D6FE994B0022FE
:103B900001F020FD079B0546A1F15076002B00F0B7
:103BA0003F81029B1593079B12930B9B002B00F008
:103BB000FB81129A8C4B002003EBC20353E90223D2
:103BC0008D4901F0E3FF2A46334601F001FD8246AC
:103BD0008B463846414602F05FF9054601F046FE45
:103BE00002460B463846414601F0F2FC30355FFA9A
:103BF00085F8049D06460F4685F8008002460B4670
:103C000050465946013502F027F9002854D1324672
:103C10003B460020764901F0DBFC02460B4650464D
:103C2000594602F019F9002840F07082129A012AD0
:103C300000F01281129B049ACDF8489013449946E3
:103C40000FE032463B460020694901F0C1FC524674
:103C50005B4602F0E3F8002840F056824D4500F044
:103C6000F980504659460022644B01F065FE00225F
:103C7000624B82468B463046394601F05DFE0F4668
:103C8000064602F009F9804601F0F0FD02460B46B7
:103C90003046394601F09CFC08F130085FFA88F89C
:103CA00005F8018B52465B4606460F4602F0B6F811
:103CB0000028C6D0DDF84890159B029323E5002329
:103CC0000B93259B002B40F3DD801F461E460F9370
:103CD0000793F6E601230B93F3E7BAF1000F7FF4A5
:103CE000A7ADCBF31303002B7FF4BCAD2BF0004743
:103CF0003F0D3F05002F00F00D820A9B01330A9310
:103D0000089B0133089301230C93ADE5079B002B1F
:103D10003FF748AC40F02282DDE908010022384B31
:103D200001F00AFE52465B4602F08CF8DDF81C807A
:103D30004646002841D0259B049DDB430293414623
:103D4000204600F06BFD002E3FF4DDACA7E60C9A98
:103D50004946204600F09AFE814657E5149A002A0B
:103D600000F0888103F233430C9F0A9DF2E4BAF11C
:103D7000000F7FF477ADB4E700F05AFD47460646E2
:103D80008346C0E501462046089300F047FD012226
:103D9000089BE2E5249B022B7FF798AD079B002B45
:103DA000C9D141460522204600F042FD0146804629
:103DB000484600F00BFF0028BDDD3123029A04992C
:103DC000013202920B704D1CB9E73123029A013285
:103DD0000292049A137052E601230B9366E6DDF813
:103DE00028900B9C8FE400BF887A0008607A000856
:103DF0000000F03F00001C400000E03F00002440B5
:103E000000001440504601F031FD3A46434601F0AF
:103E100093FD0022C14B01F0DDFB0546A1F1507678
:103E200041460022BE4B384601F0D2FB2A463346BB
:103E300082468B4602F010F88046002840F0108140
:103E40002A4606F100435046594601F0E7FF18B1F3
:103E5000464670E7DDF84890DDE910ABFFF78FBB11
:103E60000498FFF7C0BA0C9B0D9AFB1A1A440C97E2
:103E70000D92002768E4DDE910234FF0020ACDE936
:103E8000122356E60021012320466164259300F0A9
:103E90009FFC259B04900793259B20640F9327E6A6
:103EA000002AD046CDF820B09A4611DD49460122BD
:103EB000204600F03BFE4146814600F087FE002888
:103EC00040F34581BAF1390F00F0058105F1310A5F
:103ED000B34687F800A07D1C089ED0E504D11AF0F7
:103EE000010F01D0BBE5154615F8013C6A1E302BC9
:103EF000F9D0C4E5302204990A70029A15F8018CB1
:103F000001320292FFF7FBBB00F0BB80DDE910013C
:103F1000029B4FF0020A5D42824B05F00F0203EB59
:103F2000C203D3E9002301F007FD2D11074688469F
:103F30003FF41AAE7C4EEB0709D5D6E9002338468C
:103F4000414601F0F9FC074688460AF1010A6D1066
:103F500006F10806EFD107E67168204600F038FC4C
:103F60000546336906F10C0102339A000C30FDF767
:103F7000A9FD29460122204600F0D8FD0890B6E4AC
:103F8000392BCDF820B0D04600F0A58003F1010A0E
:103F9000B34687F800A07D1C089E70E55A46D046BF
:103FA000B3469A4616464EE512985E492A4601EBFC
:103FB000C001334651E9020101F0BEFCCDE9160112
:103FC0003846414601F068FF054601F04FFC0246C5
:103FD0000B463846414601F0FBFA06461298049A11
:103FE0003035012815700F4602F1010526D0129BCD
:103FF000049ACDF8489013444FF0000A9946DFF830
:1040000030B152465B463046394601F095FC0F46CA
:10401000064601F041FF804601F028FC02460B46AF
:104020003046394601F0D4FA08F1300805F8018B22
:104030004D4506460F46E4D1DDF848900022DDE903
:1040400016013A4B01F0C6FA32463B4601F0E6FE55
:10405000002846D0159B029315F8018CFFF742BB50
:104060004FF000084646A8E60A9B079A9D1A0023CF
:10407000FFF770BB189B0C9FC3F136030A9DFFF737
:1040800069BBDDE910784FF0020A6DE5079B002B54
:104090003FF4B8AE0F9B002B7FF7DEAE0022244B1F
:1040A0003846414601F048FC074688460AF10100BF
:1040B00001F0DCFB3A46434601F03EFC0022174B80
:1040C00001F088FA029A0F9B013A05461592A1F178
:1040D0005076129369E53922B3463A70089E7D1CEA
:1040E000BFE4DDE916230020104901F071FA3246E1
:1040F0003B4601F0B1FE08B9AEE6154615F8013CA5
:104100006A1E302BF9D0D7E5DDF84890159B029355
:10411000FFF7E8BA0C97FFF7A7BB00BF00001C40F1
:1041200000001440887A0008607A00080000E03F30
:1041300000002440392BCDF820B0D046DDF81CB06B
:104140009A46C8D0BBF1000F3FF7C0AEC0E67FF47F
:10415000BFAE1AF0010F3FF4BBAEB3E64FF000085C
:104160004646E8E5314600230A22204600F060FB7F
:104170000F9B0646002B07DD0793FFF7ABBB249B85
:10418000022B1FDC0F9B3CE4249B022B1ADC0F9BB1
:10419000F2E73FF481ABC0F13C0011E4002520467A
:1041A0006564294600F014FB4FF0FF3307930F932B
:1041B00001230490259520640B93FFF7E0B90125B6
:1041C000FFF7A8B90F9B0793E8E500BF044A054B2A
:1041D0001268506B002808BF1846F030704700BFC7
:1041E00014000020500800202DE9F04F01F10B06CB
:1041F000162E83B0054640F29E8036F0070600F189
:10420000BD80B14200F2BA8000F0D6FAB6F5FC7F6C
:10421000C0F08582730A00F0B880042B00F26C8134
:10422000B30903F1390003F1380EC100B84F394426
:104230004C680839A14206D10CE0002A80F2AB801C
:10424000E468A14206D0636823F003039A1B0F2A97
:10425000F3DD70463C69DFF8CCE2744500F09E81E6
:10426000636823F003039A1B0F2A00F38381002A5B
:10427000C7F814E0C7F810E080F29180B3F5007F32
:1042800080F054810122DB0879684FEAA30C1344C3
:1042900057F8338002FA0CF207EBC30C0A43ACF177
:1042A0000801E160C4F808807A6047F83340C8F834
:1042B0000C40012483109C4094427DD8144206D1C6
:1042C00020F003006400144200F10400FAD007EB70
:1042D000C009CC468046DCF80C309C4507D15FE134
:1042E000002A80F26D81DB689C4500F05981596895
:1042F00021F003018A1B0F2AF2DDDC68D3F808C025
:1043000046F0010828461E4442F00105C3F8048027
:10431000CCF80C40C4F808C07E613E61C6F80CE0E1
:10432000C6F808E075605A50009300F04BFA009B05
:1043300003F108041EE0102920D800F03DFA1026F1
:1043400018230220724F3B445C68A3F10802944298
:1043500000F02F816368E16823F0030323445A6867
:10436000A66842F00102F16028468E605A6000F0B3
:1043700029FA0834204603B0BDE8F08F00240C234E
:1043800020462B6003B0BDE8F08F40204FF4007151
:104390004FF03F0E4AE723445A68E168E0E72344C0
:1043A0005A68284642F001025A60083400F00AFABE
:1043B000204603B0BDE8F08FBC68636823F00308B3
:1043C000B04504D3A8EB06030F2B00F38580DFF87C
:1043D0005891504BD9F800201B680132334404EB4C
:1043E000080A00F0548103F580530F3323F47F6BE8
:1043F0002BF00F0B5946284600F0E6FC411C024604
:1044000000F0FB80824500F2F680434B1968594466
:10441000196000F04C81D9F8000001301BBFA2EBFD
:104420000A0A5144C9F80020196012F0070100F08F
:104430001481C1F10800C1F580510244083102EB3A
:104440000B09C9F30B09A1EB090949462846019359
:10445000009200F0B9FC431C9DE80C0000F0428182
:10446000801A484440F001001968BC424944BA60CF
:104470001960506017D0B8F10F0F40F2FA804FF07A
:10448000050C6268A8F10C0020F0070002F00102A0
:1044900004EB000E02430F286260CEF804C0CEF891
:1044A00008C000F216811D4BBC681A68914288BF93
:1044B00019601B4B1A689142626888BF196022F02C
:1044C00003029642A2EB060301D80F2B04DC284618
:1044D00000F078F900244DE746F0010243F00103B3
:1044E000264462602846BE600834736000F06AF9B2
:1044F000204603B0BDE8F08F142B70D9542B00F286
:10450000A280330B03F16F0003F16E0EC1008DE644
:1045100040040020F0090020C0090020E809002024
:10452000EC09002048040020480800205A0A042A08
:104530005BD9142A00F2AE8002F15C01C9005B3243
:1045400007EB010C7958ACF1080C8C4500F0888021
:104550004A6822F00302934273D289688C45F7D1EE
:10456000DCF80C307A68E360C4F808C09C60CCF8D2
:104570000C409EE646F0010C42F001012644C4F8CE
:1045800004C028467E613E61C6F80CE0C6F808E02B
:104590007160E25000F016F90834EBE67A6888E6BC
:1045A00008F1010818F0030F0CF1080C7FF493AE2A
:1045B0002DE0DC68A34208BF02303FF44BAEC9E6F1
:1045C0001C4619444A68DB6854F8086F42F001023F
:1045D0004A602846F3609E6000F0F4F8CAE603F1F2
:1045E0005C0003F15B0EC10020E69A0902F139017B
:1045F000C9003832A4E7BC4254D0BC68626822F0DB
:1046000003025EE759F80839994540F0868010F0BA
:10461000030F00F1FF30F5D17B6823EA04037B60D0
:1046200064009C423FF6C8AE002C3FF4C5AE1C426D
:1046300040467FF44CAE64001C4200F10400FAD006
:1046400045E68C468CE7B3F5AA7F15D8F30B03F14A
:10465000780003F1770EC100E8E54FF48051EEE6F3
:1046600001217B68921001FA02F21A437A606346D4
:1046700079E7012353602AE740F25452934222D84B
:10468000B30C03F17D0003F17C0EC100CEE503F114
:10469000100BAFE6542A29D81A0B02F16F01C9009A
:1046A0006E324DE7204B196859441960B3E6CAF3DE
:1046B0000B0000287FF4AFAE08EB0B03BA6843F0A1
:1046C00001035360EFE67F204FF47E714FF07E0EC2
:1046D000ACE504F108012846009300F0B3FC009B10
:1046E0001968E0E601204FF00009BDE6B2F5AA7FA7
:1046F00005D8DA0B02F17801C900773220E740F2E1
:1047000054518A4205D89A0C02F17D01C9007C32CD
:1047100016E74FF47E717E2212E77B6880E7F0088F
:1047200006F108030EE600BFC0090020830770B43D
:10473000CDB23DD0541E0AB30378AB421FD0431C08
:1047400005E014F1FF3419D30278AA4217D013F010
:10475000030F184603F10103F3D1032C11D84CB316
:104760000378AB420BD00444431C02E00278AA4217
:1047700005D09C42184603F10103F7D1002070BC1C
:104780007047090289B2294341EA0141036806469C
:104790004B40A3F1013222EA030313F0803F00F102
:1047A000040003D1043C032CF0D8D8E73046D7E707
:1047B0001446D2E72046E2E7014800F029BD00BFD9
:1047C000280E0020014800F025BD00BF280E002063
:1047D000C36C70B505460C464BB153F8240080B14C
:1047E000026843F8242000230361C36070BD2122C6
:1047F000042100F0A7FBE86403460028EDD1002067
:1048000070BD012101FA04F6721D2846920000F0E5
:1048100099FB0028F3D044608660E4E731B1C36CB3
:104820004A6853F82200086043F82210704700BF1E
:10483000F0B50C4605464FF0000E0E6983B001F14D
:10484000140738680EF1010E81B202FB0133010C2E
:10485000180C02FB01019BB203EB0143764547F8BC
:10486000043B4FEA1143ECDC3BB1A268964207DA05
:1048700004EB8602013653612661204603B0F0BD89
:104880006168284601310193FFF7A2FF07462269BC
:1048900004F10C01023292000C30FDF713F9EA6CBE
:1048A0006168019B52F82100206042F821403C469B
:1048B000DEE700BF020C12040346B2B90304102065
:1048C00013F07F4F04BF1B02083013F0704F04BF7A
:1048D0001B01043013F0404F04BF9B000230002B3B
:1048E00002DB5B0003D4202070470020E8E70130A2
:1048F000704700BF0368014613F0070207D0DA07CC
:1049000021D4980721D49B080B600220704798B2ED
:1049100098B1104613F0FF0F04BF1B0A08301A07A6
:1049200004BF1B0904309A0704BF9B080230DA0752
:1049300007D45B0804D1202070471B0C1020E9E746
:1049400001300B607047002070475B080B6001204E
:10495000704700BF10B50C460121FFF739FF012257
:104960004461026110BD00BF2DE9F04F0C6915696B
:1049700083B0AC428B46164604DA2246B3462C4638
:104980000E461546DBF8083004EB0508DBF804108A
:104990009845C8BF0131FFF71BFF00F1140909EB6F
:1049A000880AD145009005D24B46002143F8041BEC
:1049B0009A45FBD806F1140C0CEB85030BF1140B94
:1049C0009C450BEB840E4BD2CDF804A09A46DCF844
:1049D0000050AFB2E7B14D465E46002156F8042BB9
:1049E000286893B284B2120C07FB0343000C07FB48
:1049F00002020B4402EB13419BB243EA0143B6456A
:104A000045F8043B4FEA1141E8D82960DCF8005032
:104A10002D0C1DD0D9F8003048461C4659460022BE
:104A20000E88240C05FB06449BB2224443EA024351
:104A300040F8043B51F8043B04681B0CA6B205FB8C
:104A400003638E4503EB12434FEA1342E8D8036039
:104A50000CF1040CE24509F10409B8D8DDF804A012
:104A6000B8F1000F0BDD5AF8043CAAF1040A1BB19F
:104A700005E05AF8043D13B9B8F10108F9D10098DE
:104A8000C0F8108003B0BDE8F08F00BF12F0030340
:104A90002DE9F041144607462ED10D46A4101CD036
:104AA000BE6C96B3E3074FF0000806D4641014D030
:104AB0003068A8B10646E307F8D53246294638469D
:104AC000FFF752FFB5B16A68FB6C641053F822100F
:104AD000296043F822500546EAD12846BDE8F08116
:104AE000324631463846FFF73FFF3060C0F800805D
:104AF0000646E0E70546D9E70B4A013B52F823207A
:104B00000023FFF795FE0546C8E701213846FFF769
:104B10005FFE40F2712101220023416102610646DD
:104B2000B8640360BEE700BF507B00082DE9F8437E
:104B30000B69541104EB03088B6808F101059D42D1
:104B40000E4691460746496804DD5B009D4201F12F
:104B50000101FADC3846FFF73BFE002C00F114039C
:104B600006DD002103EB840243F8041B9A42FBD1CB
:104B7000346906F1140119F01F0901EB840E1DD0F0
:104B80000022C9F1200C0C6804FA09F4144343F81C
:104B9000044B51F8042B8E4522FA0CF2F3D81A601C
:104BA0000AB108F10205FB6C7268013D53F822104E
:104BB0000561316043F82260BDE8F883043B51F899
:104BC000042B8E4543F8042FF9D8ECE730B40B6979
:104BD00005460069C01A0FD19B00143514311944E1
:104BE0002B4401E09D4207D253F8044D51F8042DA7
:104BF0009442F7D002D3012030BC70474FF0FF3011
:104C0000FAE700BF2DE9F84F0C6989461169924611
:104C1000641A002C17D1890009F1140702F1140657
:104C20007B18314401E09F4265D253F8045D51F88E
:104C3000042D9542F7D067D24B46BB46D146374646
:104C40009A46012405E061DB002409F114070AF10A
:104C5000140BD9F80410FFF7BBFD5D464FF00008B8
:104C6000D9F810E0DAF810303E46C4600BEB830C44
:104C700007EB8E0700F1140456F8049B55F8042B3B
:104C80001FFA89F343441FFA82F8120CA3EB0803BE
:104C9000C2EB194202EB23429BB243EA0243AC450A
:104CA00044F8043B4FEA2248E6D8B74217D9A44655
:104CB000354655F8043B99B241440A1402EB1342BD
:104CC00089B241EA0243AF424CF8043B4FEA224822
:104CD000EFD8F643374427F0030704373C44043C3D
:104CE0002BB954F8043D0EF1FF3E002BF9D0C0F86B
:104CF00010E0BDE8F88F0021FFF76AFD01220023D4
:104D000002614361BDE8F88FB346A2E74B4609F163
:104D1000140B02F11407914601249A4699E700BF4B
:104D2000F0B5012183B01C46C3F30A551646FFF7C0
:104D30004FFDC4F3130407460DB144F480140194ED
:104D400006B302A840F8086DFFF7D4FD002830D163
:104D50009DE80C007A61002B0CBF01210221BB6190
:104D60003961D5B9089A07EB8103A0F2324010608F
:104D70001869FFF79FFD099BC0EB4110186038468A
:104D800003B0F0BD01A8FFF7B5FD0122019B11465C
:104D900020303A617B61002DE4D0A5F23343089ABC
:104DA00003441360099BC0F135001860384603B016
:104DB000F0BD019BC0F12002009903FA02F20A4300
:104DC000C34001937A61C6E738B50023064C054617
:104DD00008462360FBF78CFD431C00D038BD2368D8
:104DE000002BFBD02B6038BD3C0E002020F00301CF
:104DF00010F00300C0F1000051F8043B00F1040C76
:104E00004FEACC0C6FF000021CBF22FA0CF21343E5
:104E10004FF0010C4CEA0C2C4CEA0C4CA3EB0C02AE
:104E200022EA030212EACC1204BF51F8043B043018
:104E3000F4D0C2F1000102EA0102B2FA82F2C2F138
:104E40001F0200EBD20070472DE9F04F936883B04A
:104E50009046002B70D082460C4617688D68086813
:104E600042E0A38913F4906F2ED06569216905EBA8
:104E70004505A0EB010B05EBD5750BF101006D109D
:104E80003044A8422A4684BF05462A465B0538D5E9
:104E900011465046FFF7A8F900283CD05A46216930
:104EA0000190FCF70FFEA289019B22F4906242F070
:104EB0008002A281A5EB0B0203EB0B006561B346F8
:104EC000354623612060A2605A464946FCF770FED1
:104ED000D8F80830A2682068551B58449E1BA5606E
:104EE0002060C8F808603EB37E683B460837002E55
:104EF000FAD0AE42D3F80090AB46B2D23546B346B4
:104F0000E2E7504600F09EF903460028D2D121691D
:104F1000504600F097F80C2300224FF0FF30CAF8FB
:104F20000030A38943F04003A381C8F80820C8F8E3
:104F3000042003B0BDE8F08F0020C8F8040003B0DF
:104F4000BDE8F08F10B502FB01F1FFF74DF9044603
:104F5000D8B150F8042C22F00302043A242A18D8BD
:104F6000132A14D900231B2A0360436016D9242A6C
:104F70008360C36011BF00F110020361436100F15F
:104F800018020023136053609360204610BD024650
:104F9000F7E70021FCF770FE204610BD00F1080283
:104FA000EFE700BFF8B50C46234F0646FFF704FCB9
:104FB000BB68C4F57E615D680F3125F003052944A7
:104FC00021F47F6121F00F01A1F58054B4F5805FD9
:104FD00007DB00213046FFF7F7FEBB682B44984201
:104FE00004D03046FFF7EEFB0020F8BD61423046AA
:104FF000FFF7EAFE01300DD0104BBA6819682D1B7F
:1050000045F001053046091B55601960FFF7DAFBD2
:105010000120F8BD00213046FFF7D6FEBA68831A9A
:105020000F2BDEDD064C0549246843F00103001B0D
:1050300053600860D5E700BF40040020C00900208D
:1050400048080020002944D02DE9F0410D46804653
:10505000FFF7B2FB55F8047C6949A5F1080427F075
:105060000103E2188E685068B24220F003005ED05F
:10507000FE0750600BD455F8087C01F1080EE41BC4
:10508000A5683B4475456DD0E768EF60BD601518B5
:105090006D68ED073ED543F001026260E350B3F561
:1050A000007F17D20122DB0898104D68134451F895
:1050B0003370824001EBC3002A430838E060A760E8
:1050C0004A6041F83340FC604046BDE8F041FFF7DC
:1050D00079BB70475A0A042A52D89A0902F1390753
:1050E000FF0002F13805C819CA59083890424FD05C
:1050F000516821F003018B4232D292689042F7D17D
:10510000C368A060E3609C60C4604046BDE8F041B5
:10511000FFF758BB95683B4F0344BD4240D0D06871
:1051200043F00102E86085606260E350B7E7FF0783
:10513000034407D455F8085C641BE268A0682B445C
:10514000C2609060304A43F0010012686060934290
:105150008C60B9D32D4B40461968FFF723FFB3E7A6
:105160001046CDE711184968C90744D49168034433
:10517000D26843F00100CA6091606060E350A3E729
:10518000142A16D802F15C07FF0002F15B05AAE7BA
:105190000123AA104D6893402B434B600346B0E7B0
:1051A00043F001024C610C61E560A5606260E35070
:1051B0008AE7542A06D81A0B02F16F07FF0002F1A2
:1051C0006E0590E7B2F5AA7F06D8DA0B02F17807F0
:1051D000FF0002F1770586E740F25450824206D87C
:1051E0009A0C02F17D07FF0002F17C057BE74FF48A
:1051F0007E777E2577E743F001016160136063E706
:1052000040040020480400204C080020F009002041
:10521000704700BF704700BF82B049B15AB16BB14F
:1052200013780B601278101C18BF012002B0704771
:1052300001A9002AF3D1104602B070476FF00100B7
:10524000F4E700BF002900F094802DE9F04F0C46F0
:10525000154683B0804605F10B06FFF7ADFA54F80A
:1052600004EC162E2EF00307A4F108093CD81022F6
:105270001646B5423DD8974243DAC64B09EB0700C4
:105280009968884200F0C380436823F0010101441B
:105290004968C9074DD51EF0010F00F09B802946D3
:1052A0004046FEF7A1FF054600283BD054F8043CD9
:1052B000A0F1080223F001034B449A4200F02B8135
:1052C0003A1F242A00F21881132A00F2EB800346C9
:1052D0002246116819605168596092689A602146A7
:1052E0004046FFF7AFFE1DE026F00706002E3246CF
:1052F000BFDA00250C232846C8F8003003B0BDE80B
:10530000F08F2546BB1B0F2BD9F804201DD802F0C7
:1053100001023A4309EB0701C9F804204B6843F046
:1053200001034B604046FFF74DFA284603B0BDE845
:10533000F08F23F00303F91891421DDBC3688268E4
:105340002546D3600F469A60DCE702F0010209EBC4
:10535000060143F001033243C9F804204F444B6077
:105360007B68083143F001037B604046FFF76AFE2B
:10537000D8E71146FEF738BF1EF0010F8FD154F861
:10538000081CA9EB010ADAF8041021F003010B4410
:105390003B44934226DB5546C16880683A1FC16092
:1053A000886055F8080FDAF80C10242AC16088606C
:1053B00026D8132A40F2818021681B2ACAF80810D7
:1053C0006168CAF80C1000F2AD8004F108000AF11F
:1053D000100274E054F8083CA9EB030ADAF8041050
:1053E00021F003017B189342FFF659AF5546DAF8D6
:1053F0000C1055F8080F3A1F242AC1608860D8D9CC
:10540000214628461F46D146FCF7D2FB7AE7416881
:1054100006F1100021F0030BBB44834558DA1EF05F
:10542000010F7FF43CAF54F8081CA9EB010ADAF82D
:10543000041021F003018B445845D3DC5546DAF8BB
:105440000C1055F8080F3A1F242AC160886000F23A
:105450008D80132A40F2878021681B2ACAF8081021
:105460006168CAF80C1000F2888004F108010AF1A2
:105470001002086810604868506089689160ABEB62
:1054800006020AEB060142F0010299604A60DAF86E
:105490000430404603F001031E43CAF80460FFF7DE
:1054A00091F942E723681B2A03606368436027D8A9
:1054B00000F1080304F108020BE720462A460168C0
:1054C0001F4611604168D14651608368936019E7B7
:1054D000ABEB060B09EB06014BF0010299604A6049
:1054E00054F8043C404603F001031E4344F8046CA6
:1054F000FFF768F9254618E72146FCF759FBEEE669
:10550000A368242A8360E368C36018D000F1100305
:1055100004F11002DDE650F8043C254623F00303B5
:105520001F44EFE6A168242ACAF81010E168CAF8FF
:1055300014100DD004F110000AF11802BFE722691F
:1055400000F118030261616904F118024161C0E6CB
:10555000226904F11800CAF8182061690AF12002D2
:10556000CAF81C10ABE721462A4682E721462846A6
:105570000193FCF71DFB019B81E7A168242ACAF86F
:105580001010E168CAF8141006D004F110010AF1F5
:1055900018026EE740040020226904F11801CAF8DD
:1055A000182060690AF12002CAF81C0061E700BFF8
:1055B00019B1FF2A03D80A700121084670478A23CF
:1055C0004FF0FF310360F8E781F0004102E000BFD7
:1055D00083F0004330B54FEA41044FEA430594EAB3
:1055E000050F08BF90EA020F1FBF54EA000C55EAEE
:1055F000020C7FEA645C7FEA655C00F0E2804FEABF
:105600005454D4EB5555B8BF6D420CDD2C4480EAA0
:10561000020281EA030382EA000083EA010180EAD0
:10562000020281EA0303362D88BF30BD11F0004F1E
:105630004FEA01314FF4801C4CEA113102D0404254
:1056400061EB410113F0004F4FEA03334CEA13338F
:1056500002D0524263EB430394EA050F00F0A780A7
:10566000A4F10104D5F1200E0DDB02FA0EFC22FAA2
:1056700005F2801841F1000103FA0EF2801843FA96
:1056800005F359410EE0A5F120050EF1200E012A87
:1056900003FA0EFC28BF4CF0020C43FA05F3C018C5
:1056A00051EBE37101F0004507D54FF0000EDCF13E
:1056B000000C7EEB00006EEB0101B1F5801F1BD3E7
:1056C000B1F5001F0CD349085FEA30004FEA3C0CEB
:1056D00004F101044FEA445212F5800F80F09A80E1
:1056E000BCF1004F08BF5FEA500C50F1000041EBE5
:1056F000045141EA050130BD5FEA4C0C404141EBE9
:10570000010111F4801FA4F10104E9D191F0000F0F
:1057100004BF01460020B1FA81F308BF2033A3F192
:105720000B03B3F120020CDA0C3208DD02F1140C89
:10573000C2F10C0201FA0CF021FA02F10CE002F1C4
:105740001402D8BFC2F1200C01FA02F120FA0CFCBD
:10575000DCBF41EA0C019040E41AA2BF01EB045106
:10576000294330BD6FEA04041F3C1CDA0C340EDC04
:1057700004F11404C4F1200220FA04F001FA02F347
:1057800040EA030021FA04F345EA030130BDC4F105
:105790000C04C4F1200220FA02F001FA04F340EAFA
:1057A0000300294630BD21FA04F0294630BD94F0AB
:1057B000000F83F4801306BF81F480110134013D92
:1057C0004EE77FEA645C18BF7FEA655C29D094EA03
:1057D000050F08BF90EA020F05D054EA000C04BF81
:1057E0001946104630BD91EA030F1EBF002100206C
:1057F00030BD5FEA545C05D14000494128BF41F00B
:10580000004130BD14F580043CBF01F5801130BD6E
:1058100001F0004545F0FE4141F470014FF00000F9
:1058200030BD7FEA645C1ABF194610467FEA655CAA
:105830001CBF0B46024650EA013406BF52EA03354C
:1058400091EA030F41F4002130BD00BF90F0000F3A
:1058500004BF0021704730B54FF4806404F1320476
:105860004FF000054FF0000150E700BF90F0000F2F
:1058700004BF0021704730B54FF4806404F1320456
:1058800010F0004548BF40424FF000013EE700BF26
:1058900042004FEAE2014FEA31014FEA02701FBFB6
:1058A00012F07F4393F07F4F81F06051704792F088
:1058B000000F14BF93F07F4F704730B54FF4607402
:1058C00001F0004521F0004120E700BF50EA01024D
:1058D00008BF704730B54FF000050AE050EA0102FA
:1058E00008BF704730B511F0004502D5404261EB6A
:1058F00041014FF4806404F132045FEA915C3FF4AB
:10590000DCAE4FF003025FEADC0C18BF03325FEA43
:10591000DC0C18BF033202EBDC02C2F1200300FAF8
:1059200003FC20FA02F001FA03FE40EA0E0021FA1D
:1059300002F11444C1E600BF70B54FF0FF0C4CF407
:10594000E06C1CEA11541DBF1CEA135594EA0C0FBD
:1059500095EA0C0F00F0DEF82C4481EA030621EAF8
:105960004C5123EA4C5350EA013518BF52EA033533
:1059700041F4801143F4801338D0A0FB02CE4FF0E5
:105980000005E1FB02E506F00042E0FB03E54FF015
:105990000006E1FB03569CF0000F18BF4EF0010E0D
:1059A000A4F1FF04B6F5007F64F5407404D25FEA09
:1059B0004E0E6D4146EB060642EAC62141EA5551BC
:1059C0004FEAC52040EA5E504FEACE2EB4F1FD0CFE
:1059D00088BFBCF5E06F1ED8BEF1004F08BF5FEA7C
:1059E000500E50F1000041EB045170BD06F000462E
:1059F00046EA010140EA020081EA0301B4EB5C04DB
:105A0000C2BFD4EB0C0541EA045170BD41F48011D2
:105A10004FF0000E013C00F3AB8014F1360FDEBFF7
:105A2000002001F0004170BDC4F10004203C35DAD3
:105A30000C341BDC04F11404C4F1200500FA05F356
:105A400020FA04F001FA05F240EA020001F00042F7
:105A500021F0004110EBD37021FA04F642EB06016D
:105A60005EEA430E08BF20EAD37070BDC4F10C0497
:105A7000C4F1200500FA04F320FA05F001FA04F25B
:105A800040EA020001F0004110EBD37041F1000147
:105A90005EEA430E08BF20EAD37070BDC4F1200552
:105AA00000FA05F24EEA020E20FA04F301FA05F2BA
:105AB00043EA020321FA04F001F0004121FA04F262
:105AC00020EA020000EBD3705EEA430E08BF20EA32
:105AD000D37070BD94F0000F0FD101F0004640006C
